{
  "address": "0x5FbDB2315678afecb367f032d93F642f64180aa3",
  "abi": [
    {
      "anonymous": false,
      "inputs": [
        {
          "indexed": true,
          "internalType": "bytes32",
          "name": "categoryId",
          "type": "bytes32"
        },
        {
          "indexed": false,
          "internalType": "string",
          "name": "category",
          "type": "string"
        }
      ],
      "name": "CategoryCreated",
      "type": "event"
    },
    {
      "anonymous": false,
      "inputs": [
        {
          "indexed": true,
          "internalType": "bytes32",
          "name": "contentId",
          "type": "bytes32"
        },
        {
          "indexed": false,
          "internalType": "string",
          "name": "contentUri",
          "type": "string"
        }
      ],
      "name": "ContentAdded",
      "type": "event"
    },
    {
      "anonymous": false,
      "inputs": [
        {
          "indexed": true,
          "internalType": "bytes32",
          "name": "postId",
          "type": "bytes32"
        },
        {
          "indexed": true,
          "internalType": "address",
          "name": "postOwner",
          "type": "address"
        },
        {
          "indexed": true,
          "internalType": "bytes32",
          "name": "parentId",
          "type": "bytes32"
        },
        {
          "indexed": false,
          "internalType": "bytes32",
          "name": "contentId",
          "type": "bytes32"
        },
        {
          "indexed": false,
          "internalType": "bytes32",
          "name": "categoryId",
          "type": "bytes32"
        }
      ],
      "name": "PostCreated",
      "type": "event"
    },
    {
      "anonymous": false,
      "inputs": [
        {
          "indexed": true,
          "internalType": "bytes32",
          "name": "postId",
          "type": "bytes32"
        },
        {
          "indexed": true,
          "internalType": "address",
          "name": "postOwner",
          "type": "address"
        },
        {
          "indexed": true,
          "internalType": "address",
          "name": "voter",
          "type": "address"
        },
        {
          "indexed": false,
          "internalType": "uint80",
          "name": "reputationPostOwner",
          "type": "uint80"
        },
        {
          "indexed": false,
          "internalType": "uint80",
          "name": "reputationVoter",
          "type": "uint80"
        },
        {
          "indexed": false,
          "internalType": "int40",
          "name": "postVotes",
          "type": "int40"
        },
        {
          "indexed": false,
          "internalType": "bool",
          "name": "up",
          "type": "bool"
        },
        {
          "indexed": false,
          "internalType": "uint8",
          "name": "reputationAmount",
          "type": "uint8"
        }
      ],
      "name": "Voted",
      "type": "event"
    },
    {
      "inputs": [
        {
          "internalType": "string",
          "name": "_category",
          "type": "string"
        }
      ],
      "name": "addCategory",
      "outputs": [],
      "stateMutability": "nonpayable",
      "type": "function"
    },
    {
      "inputs": [
        {
          "internalType": "bytes32",
          "name": "_parentId",
          "type": "bytes32"
        },
        {
          "internalType": "string",
          "name": "_contentUri",
          "type": "string"
        },
        {
          "internalType": "bytes32",
          "name": "_categoryId",
          "type": "bytes32"
        }
      ],
      "name": "createPost",
      "outputs": [],
      "stateMutability": "nonpayable",
      "type": "function"
    },
    {
      "inputs": [
        {
          "internalType": "bytes32",
          "name": "_categoryId",
          "type": "bytes32"
        }
      ],
      "name": "getCategory",
      "outputs": [
        {
          "internalType": "string",
          "name": "",
          "type": "string"
        }
      ],
      "stateMutability": "view",
      "type": "function"
    },
    {
      "inputs": [
        {
          "internalType": "bytes32",
          "name": "_contentId",
          "type": "bytes32"
        }
      ],
      "name": "getContent",
      "outputs": [
        {
          "internalType": "string",
          "name": "",
          "type": "string"
        }
      ],
      "stateMutability": "view",
      "type": "function"
    },
    {
      "inputs": [
        {
          "internalType": "bytes32",
          "name": "_postId",
          "type": "bytes32"
        }
      ],
      "name": "getPost",
      "outputs": [
        {
          "internalType": "address",
          "name": "",
          "type": "address"
        },
        {
          "internalType": "bytes32",
          "name": "",
          "type": "bytes32"
        },
        {
          "internalType": "bytes32",
          "name": "",
          "type": "bytes32"
        },
        {
          "internalType": "int72",
          "name": "",
          "type": "int72"
        },
        {
          "internalType": "bytes32",
          "name": "",
          "type": "bytes32"
        }
      ],
      "stateMutability": "view",
      "type": "function"
    },
    {
      "inputs": [
        {
          "internalType": "address",
          "name": "_address",
          "type": "address"
        },
        {
          "internalType": "bytes32",
          "name": "_categoryID",
          "type": "bytes32"
        }
      ],
      "name": "getReputation",
      "outputs": [
        {
          "internalType": "uint80",
          "name": "",
          "type": "uint80"
        }
      ],
      "stateMutability": "view",
      "type": "function"
    },
    {
      "inputs": [
        {
          "internalType": "bytes32",
          "name": "_postId",
          "type": "bytes32"
        },
        {
          "internalType": "uint8",
          "name": "_reputationTaken",
          "type": "uint8"
        }
      ],
      "name": "voteDown",
      "outputs": [],
      "stateMutability": "nonpayable",
      "type": "function"
    },
    {
      "inputs": [
        {
          "internalType": "bytes32",
          "name": "_postId",
          "type": "bytes32"
        },
        {
          "internalType": "uint8",
          "name": "_reputationAdded",
          "type": "uint8"
        }
      ],
      "name": "voteUp",
      "outputs": [],
      "stateMutability": "nonpayable",
      "type": "function"
    }
  ],
  "transactionHash": "0x448350ca32c89670c16286502cb4a4b141c7ecdf8b9f1aa11248915a00cf68ec",
  "args": [],
  "numDeployments": 1,
  "solcInputHash": "0040d0bd1d524ed4131e120f262e7b3a",
  "bytecode": "0x608060405234801561001057600080fd5b50611de8806100206000396000f3fe608060405234801561001057600080fd5b50600436106100885760003560e01c806393e43bbe1161005b57806393e43bbe14610125578063b2fae27214610159578063e1957bf314610189578063f2287b3e146101a557610088565b80632e0dcbf71461008d57806333032b09146100a9578063473b084c146100c55780635cc15001146100f5575b600080fd5b6100a760048036038101906100a291906112ad565b6101c1565b005b6100c360048036038101906100be9190611330565b610250565b005b6100df60048036038101906100da91906113a4565b61040f565b6040516100ec919061146a565b60405180910390f35b61010f600480360381019061010a91906113a4565b6104b4565b60405161011c919061146a565b60405180910390f35b61013f600480360381019061013a91906113a4565b610559565b6040516101509594939291906114f8565b60405180910390f35b610173600480360381019061016e9190611577565b61061a565b60405161018091906115dc565b60405180910390f35b6101a3600480360381019061019e9190611630565b61068a565b005b6101bf60048036038101906101ba9190611630565b610c08565b005b600082826040516020016101d69291906116ac565b604051602081830303815290604052805190602001209050828260016000848152602001908152602001600020919061021092919061119b565b50807f42588c2617ffb1b380decf15f2134bd59bb002295bda52fe6e5bf92fc504d24984846040516102439291906116ac565b60405180910390a2505050565b60003390506000848460405160200161026a9291906116ac565b604051602081830303815290604052805190602001209050600082878360405160200161029993929190611739565b60405160208183030381529060405280519060200120905085856002600085815260200190815260200160002091906102d392919061119b565b50826003600083815260200190815260200160002060000160006101000a81548173ffffffffffffffffffffffffffffffffffffffff021916908373ffffffffffffffffffffffffffffffffffffffff160217905550866003600083815260200190815260200160002060010181905550816003600083815260200190815260200160002060020181905550836003600083815260200190815260200160002060040181905550817ffb281bb05c5ef4b3a5f374fffc0b351fe69873776a9d6c289682e1929cb4f08087876040516103ac9291906116ac565b60405180910390a2868373ffffffffffffffffffffffffffffffffffffffff16827fdd56be40fa15d802b8ddf46fb1480b3bef291828e21d8c168f8f96368716d7e485886040516103fe929190611776565b60405180910390a450505050505050565b606060016000838152602001908152602001600020805461042f906117ce565b80601f016020809104026020016040519081016040528092919081815260200182805461045b906117ce565b80156104a85780601f1061047d576101008083540402835291602001916104a8565b820191906000526020600020905b81548152906001019060200180831161048b57829003601f168201915b50505050509050919050565b60606002600083815260200190815260200160002080546104d4906117ce565b80601f0160208091040260200160405190810160405280929190818152602001828054610500906117ce565b801561054d5780601f106105225761010080835404028352916020019161054d565b820191906000526020600020905b81548152906001019060200180831161053057829003601f168201915b50505050509050919050565b60008060008060006003600087815260200190815260200160002060000160009054906101000a900473ffffffffffffffffffffffffffffffffffffffff1660036000888152602001908152602001600020600101546003600089815260200190815260200160002060020154600360008a815260200190815260200160002060030160009054906101000a900460040b600360008b8152602001908152602001600020600401548160040b91509450945094509450945091939590929450565b60008060008473ffffffffffffffffffffffffffffffffffffffff1673ffffffffffffffffffffffffffffffffffffffff168152602001908152602001600020600083815260200190815260200160002060009054906101000a900469ffffffffffffffffffff16905092915050565b600033905060006003600085815260200190815260200160002060040154905060006003600086815260200190815260200160002060000160009054906101000a900473ffffffffffffffffffffffffffffffffffffffff16905060001515600460008573ffffffffffffffffffffffffffffffffffffffff1673ffffffffffffffffffffffffffffffffffffffff168152602001908152602001600020600087815260200190815260200160002060009054906101000a900460ff16151514610789576040517f08c379a00000000000000000000000000000000000000000000000000000000081526004016107809061184c565b60405180910390fd5b600115156107988484876110c0565b1515146107da576040517f08c379a00000000000000000000000000000000000000000000000000000000081526004016107d1906118de565b60405180910390fd5b60016003600087815260200190815260200160002060030160009054906101000a900460040b60040b12156108485760006003600087815260200190815260200160002060030160006101000a81548164ffffffffff021916908360040b64ffffffffff160217905561089e565b60016003600087815260200190815260200160002060030160008282829054906101000a900460040b61087b919061193a565b92506101000a81548164ffffffffff021916908360040b64ffffffffff16021790555b508360ff166000808373ffffffffffffffffffffffffffffffffffffffff1673ffffffffffffffffffffffffffffffffffffffff168152602001908152602001600020600084815260200190815260200160002060009054906101000a900469ffffffffffffffffffff1669ffffffffffffffffffff16101561099a5760008060008373ffffffffffffffffffffffffffffffffffffffff1673ffffffffffffffffffffffffffffffffffffffff168152602001908152602001600020600084815260200190815260200160002060006101000a81548169ffffffffffffffffffff021916908369ffffffffffffffffffff1602179055610a3b565b8360ff166000808373ffffffffffffffffffffffffffffffffffffffff1673ffffffffffffffffffffffffffffffffffffffff168152602001908152602001600020600084815260200190815260200160002060008282829054906101000a900469ffffffffffffffffffff16610a1191906119b3565b92506101000a81548169ffffffffffffffffffff021916908369ffffffffffffffffffff16021790555b506001600460008573ffffffffffffffffffffffffffffffffffffffff1673ffffffffffffffffffffffffffffffffffffffff168152602001908152602001600020600087815260200190815260200160002060006101000a81548160ff0219169083151502179055508273ffffffffffffffffffffffffffffffffffffffff168173ffffffffffffffffffffffffffffffffffffffff16867f01d21e353645a36d22513edbfe86f2d524130c25320a11ed375056ea54b427af6000808673ffffffffffffffffffffffffffffffffffffffff1673ffffffffffffffffffffffffffffffffffffffff168152602001908152602001600020600087815260200190815260200160002060009054906101000a900469ffffffffffffffffffff166000808973ffffffffffffffffffffffffffffffffffffffff1673ffffffffffffffffffffffffffffffffffffffff168152602001908152602001600020600088815260200190815260200160002060009054906101000a900469ffffffffffffffffffff16600360008c815260200190815260200160002060030160009054906101000a900460040b60008b604051610bf9959493929190611a20565b60405180910390a45050505050565b600033905060006003600085815260200190815260200160002060040154905060006003600086815260200190815260200160002060000160009054906101000a900473ffffffffffffffffffffffffffffffffffffffff1690508273ffffffffffffffffffffffffffffffffffffffff166003600087815260200190815260200160002060000160009054906101000a900473ffffffffffffffffffffffffffffffffffffffff1673ffffffffffffffffffffffffffffffffffffffff161415610d08576040517f08c379a0000000000000000000000000000000000000000000000000000000008152600401610cff9061184c565b60405180910390fd5b60001515600460008573ffffffffffffffffffffffffffffffffffffffff1673ffffffffffffffffffffffffffffffffffffffff168152602001908152602001600020600087815260200190815260200160002060009054906101000a900460ff16151514610dac576040517f08c379a0000000000000000000000000000000000000000000000000000000008152600401610da390611abf565b60405180910390fd5b60011515610dbb8484876110c0565b151514610dfd576040517f08c379a0000000000000000000000000000000000000000000000000000000008152600401610df490611b51565b60405180910390fd5b60016003600087815260200190815260200160002060030160008282829054906101000a900460040b610e309190611b71565b92506101000a81548164ffffffffff021916908360040b64ffffffffff1602179055508360ff166000808373ffffffffffffffffffffffffffffffffffffffff1673ffffffffffffffffffffffffffffffffffffffff168152602001908152602001600020600084815260200190815260200160002060008282829054906101000a900469ffffffffffffffffffff16610eca9190611bea565b92506101000a81548169ffffffffffffffffffff021916908369ffffffffffffffffffff1602179055506001600460008573ffffffffffffffffffffffffffffffffffffffff1673ffffffffffffffffffffffffffffffffffffffff168152602001908152602001600020600087815260200190815260200160002060006101000a81548160ff0219169083151502179055508273ffffffffffffffffffffffffffffffffffffffff168173ffffffffffffffffffffffffffffffffffffffff16867f01d21e353645a36d22513edbfe86f2d524130c25320a11ed375056ea54b427af6000808673ffffffffffffffffffffffffffffffffffffffff1673ffffffffffffffffffffffffffffffffffffffff168152602001908152602001600020600087815260200190815260200160002060009054906101000a900469ffffffffffffffffffff166000808973ffffffffffffffffffffffffffffffffffffffff1673ffffffffffffffffffffffffffffffffffffffff168152602001908152602001600020600088815260200190815260200160002060009054906101000a900469ffffffffffffffffffff16600360008c815260200190815260200160002060030160009054906101000a900460040b60018b6040516110b1959493929190611a20565b60405180910390a45050505050565b6000806000808673ffffffffffffffffffffffffffffffffffffffff1673ffffffffffffffffffffffffffffffffffffffff168152602001908152602001600020600085815260200190815260200160002060009054906101000a900469ffffffffffffffffffff16905060028169ffffffffffffffffffff1610156111615760018360ff161461115557600091508161115b565b60019150815b50611193565b8069ffffffffffffffffffff1683600261117b9190611d67565b111561118b576000915081611191565b60019150815b505b509392505050565b8280546111a7906117ce565b90600052602060002090601f0160209004810192826111c95760008555611210565b82601f106111e257803560ff1916838001178555611210565b82800160010185558215611210579182015b8281111561120f5782358255916020019190600101906111f4565b5b50905061121d9190611221565b5090565b5b8082111561123a576000816000905550600101611222565b5090565b600080fd5b600080fd5b600080fd5b600080fd5b600080fd5b60008083601f84011261126d5761126c611248565b5b8235905067ffffffffffffffff81111561128a5761128961124d565b5b6020830191508360018202830111156112a6576112a5611252565b5b9250929050565b600080602083850312156112c4576112c361123e565b5b600083013567ffffffffffffffff8111156112e2576112e1611243565b5b6112ee85828601611257565b92509250509250929050565b6000819050919050565b61130d816112fa565b811461131857600080fd5b50565b60008135905061132a81611304565b92915050565b6000806000806060858703121561134a5761134961123e565b5b60006113588782880161131b565b945050602085013567ffffffffffffffff81111561137957611378611243565b5b61138587828801611257565b935093505060406113988782880161131b565b91505092959194509250565b6000602082840312156113ba576113b961123e565b5b60006113c88482850161131b565b91505092915050565b600081519050919050565b600082825260208201905092915050565b60005b8381101561140b5780820151818401526020810190506113f0565b8381111561141a576000848401525b50505050565b6000601f19601f8301169050919050565b600061143c826113d1565b61144681856113dc565b93506114568185602086016113ed565b61145f81611420565b840191505092915050565b600060208201905081810360008301526114848184611431565b905092915050565b600073ffffffffffffffffffffffffffffffffffffffff82169050919050565b60006114b78261148c565b9050919050565b6114c7816114ac565b82525050565b6114d6816112fa565b82525050565b60008160080b9050919050565b6114f2816114dc565b82525050565b600060a08201905061150d60008301886114be565b61151a60208301876114cd565b61152760408301866114cd565b61153460608301856114e9565b61154160808301846114cd565b9695505050505050565b611554816114ac565b811461155f57600080fd5b50565b6000813590506115718161154b565b92915050565b6000806040838503121561158e5761158d61123e565b5b600061159c85828601611562565b92505060206115ad8582860161131b565b9150509250929050565b600069ffffffffffffffffffff82169050919050565b6115d6816115b7565b82525050565b60006020820190506115f160008301846115cd565b92915050565b600060ff82169050919050565b61160d816115f7565b811461161857600080fd5b50565b60008135905061162a81611604565b92915050565b600080604083850312156116475761164661123e565b5b60006116558582860161131b565b92505060206116668582860161161b565b9150509250929050565b82818337600083830152505050565b600061168b83856113dc565b9350611698838584611670565b6116a183611420565b840190509392505050565b600060208201905081810360008301526116c781848661167f565b90509392505050565b60008160601b9050919050565b60006116e8826116d0565b9050919050565b60006116fa826116dd565b9050919050565b61171261170d826114ac565b6116ef565b82525050565b6000819050919050565b61173361172e826112fa565b611718565b82525050565b60006117458286611701565b6014820191506117558285611722565b6020820191506117658284611722565b602082019150819050949350505050565b600060408201905061178b60008301856114cd565b61179860208301846114cd565b9392505050565b7f4e487b7100000000000000000000000000000000000000000000000000000000600052602260045260246000fd5b600060028204905060018216806117e657607f821691505b602082108114156117fa576117f961179f565b5b50919050565b7f557365722063616e6e6f7420766f7465207468656972206f776e20706f737473600082015250565b60006118366020836113dc565b915061184182611800565b602082019050919050565b6000602082019050818103600083015261186581611829565b9050919050565b7f5468697320616464726573732063616e6e6f742074616b65207468697320616d60008201527f6f756e74206f662072657075746174696f6e20706f696e747300000000000000602082015250565b60006118c86039836113dc565b91506118d38261186c565b604082019050919050565b600060208201905081810360008301526118f7816118bb565b9050919050565b60008160040b9050919050565b7f4e487b7100000000000000000000000000000000000000000000000000000000600052601160045260246000fd5b6000611945826118fe565b9150611950836118fe565b9250827fffffffffffffffffffffffffffffffffffffffffffffffffffffff80000000000182126000841215161561198b5761198a61190b565b5b82647fffffffff0182136000841216156119a8576119a761190b565b5b828203905092915050565b60006119be826115b7565b91506119c9836115b7565b9250828210156119dc576119db61190b565b5b828203905092915050565b6119f0816118fe565b82525050565b60008115159050919050565b611a0b816119f6565b82525050565b611a1a816115f7565b82525050565b600060a082019050611a3560008301886115cd565b611a4260208301876115cd565b611a4f60408301866119e7565b611a5c6060830185611a02565b611a696080830184611a11565b9695505050505050565b7f5573657220616c726561647920766f746564206f6e207468697320706f737400600082015250565b6000611aa9601f836113dc565b9150611ab482611a73565b602082019050919050565b60006020820190508181036000830152611ad881611a9c565b9050919050565b7f5468697320616464726573732063616e6e6f7420616464207468697320616d6f60008201527f756e74206f662072657075746174696f6e20706f696e74730000000000000000602082015250565b6000611b3b6038836113dc565b9150611b4682611adf565b604082019050919050565b60006020820190508181036000830152611b6a81611b2e565b9050919050565b6000611b7c826118fe565b9150611b87836118fe565b925081647fffffffff03831360008312151615611ba757611ba661190b565b5b817fffffffffffffffffffffffffffffffffffffffffffffffffffffff8000000000038312600083121615611bdf57611bde61190b565b5b828201905092915050565b6000611bf5826115b7565b9150611c00836115b7565b92508269ffffffffffffffffffff03821115611c1f57611c1e61190b565b5b828201905092915050565b60008160011c9050919050565b6000808291508390505b6001851115611c8157808604811115611c5d57611c5c61190b565b5b6001851615611c6c5780820291505b8081029050611c7a85611c2a565b9450611c41565b94509492505050565b600082611c9a5760019050611d56565b81611ca85760009050611d56565b8160018114611cbe5760028114611cc857611cf7565b6001915050611d56565b60ff841115611cda57611cd961190b565b5b8360020a915084821115611cf157611cf061190b565b5b50611d56565b5060208310610133831016604e8410600b8410161715611d2c5782820a905083811115611d2757611d2661190b565b5b611d56565b611d398484846001611c37565b92509050818404811115611d5057611d4f61190b565b5b81810290505b9392505050565b6000819050919050565b6000611d7282611d5d565b9150611d7d836115f7565b9250611daa7fffffffffffffffffffffffffffffffffffffffffffffffffffffffffffffffff8484611c8a565b90509291505056fea26469706673582212203ee621450cc2af9198b604d740dfe00407585772dfbff7bbe46c7a603e20d63264736f6c63430008090033",
  "devdoc": {
    "kind": "dev",
    "methods": {},
    "version": 1
  },
  "userdoc": {
    "kind": "user",
    "methods": {},
    "version": 1
  },
  "storageLayout": {
    "storage": [
      {
        "astId": 60,
        "contract": "contracts/NFTSocial.sol:NFTSocial",
        "label": "reputationRegistry",
        "offset": 0,
        "slot": "0",
        "type": "t_mapping(t_address,t_mapping(t_bytes32,t_uint80))"
      },
      {
        "astId": 64,
        "contract": "contracts/NFTSocial.sol:NFTSocial",
        "label": "categoryRegistry",
        "offset": 0,
        "slot": "1",
        "type": "t_mapping(t_bytes32,t_string_storage)"
      },
      {
        "astId": 68,
        "contract": "contracts/NFTSocial.sol:NFTSocial",
        "label": "contentRegistry",
        "offset": 0,
        "slot": "2",
        "type": "t_mapping(t_bytes32,t_string_storage)"
      },
      {
        "astId": 73,
        "contract": "contracts/NFTSocial.sol:NFTSocial",
        "label": "postRegistry",
        "offset": 0,
        "slot": "3",
        "type": "t_mapping(t_bytes32,t_struct(post)54_storage)"
      },
      {
        "astId": 79,
        "contract": "contracts/NFTSocial.sol:NFTSocial",
        "label": "voteRegistry",
        "offset": 0,
        "slot": "4",
        "type": "t_mapping(t_address,t_mapping(t_bytes32,t_bool))"
      }
    ],
    "types": {
      "t_address": {
        "encoding": "inplace",
        "label": "address",
        "numberOfBytes": "20"
      },
      "t_bool": {
        "encoding": "inplace",
        "label": "bool",
        "numberOfBytes": "1"
      },
      "t_bytes32": {
        "encoding": "inplace",
        "label": "bytes32",
        "numberOfBytes": "32"
      },
      "t_int40": {
        "encoding": "inplace",
        "label": "int40",
        "numberOfBytes": "5"
      },
      "t_mapping(t_address,t_mapping(t_bytes32,t_bool))": {
        "encoding": "mapping",
        "key": "t_address",
        "label": "mapping(address => mapping(bytes32 => bool))",
        "numberOfBytes": "32",
        "value": "t_mapping(t_bytes32,t_bool)"
      },
      "t_mapping(t_address,t_mapping(t_bytes32,t_uint80))": {
        "encoding": "mapping",
        "key": "t_address",
        "label": "mapping(address => mapping(bytes32 => uint80))",
        "numberOfBytes": "32",
        "value": "t_mapping(t_bytes32,t_uint80)"
      },
      "t_mapping(t_bytes32,t_bool)": {
        "encoding": "mapping",
        "key": "t_bytes32",
        "label": "mapping(bytes32 => bool)",
        "numberOfBytes": "32",
        "value": "t_bool"
      },
      "t_mapping(t_bytes32,t_string_storage)": {
        "encoding": "mapping",
        "key": "t_bytes32",
        "label": "mapping(bytes32 => string)",
        "numberOfBytes": "32",
        "value": "t_string_storage"
      },
      "t_mapping(t_bytes32,t_struct(post)54_storage)": {
        "encoding": "mapping",
        "key": "t_bytes32",
        "label": "mapping(bytes32 => struct NFTSocial.post)",
        "numberOfBytes": "32",
        "value": "t_struct(post)54_storage"
      },
      "t_mapping(t_bytes32,t_uint80)": {
        "encoding": "mapping",
        "key": "t_bytes32",
        "label": "mapping(bytes32 => uint80)",
        "numberOfBytes": "32",
        "value": "t_uint80"
      },
      "t_string_storage": {
        "encoding": "bytes",
        "label": "string",
        "numberOfBytes": "32"
      },
      "t_struct(post)54_storage": {
        "encoding": "inplace",
        "label": "struct NFTSocial.post",
        "members": [
          {
            "astId": 45,
            "contract": "contracts/NFTSocial.sol:NFTSocial",
            "label": "postOwner",
            "offset": 0,
            "slot": "0",
            "type": "t_address"
          },
          {
            "astId": 47,
            "contract": "contracts/NFTSocial.sol:NFTSocial",
            "label": "parentPost",
            "offset": 0,
            "slot": "1",
            "type": "t_bytes32"
          },
          {
            "astId": 49,
            "contract": "contracts/NFTSocial.sol:NFTSocial",
            "label": "contentId",
            "offset": 0,
            "slot": "2",
            "type": "t_bytes32"
          },
          {
            "astId": 51,
            "contract": "contracts/NFTSocial.sol:NFTSocial",
            "label": "votes",
            "offset": 0,
            "slot": "3",
            "type": "t_int40"
          },
          {
            "astId": 53,
            "contract": "contracts/NFTSocial.sol:NFTSocial",
            "label": "categoryId",
            "offset": 0,
            "slot": "4",
            "type": "t_bytes32"
          }
        ],
        "numberOfBytes": "160"
      },
      "t_uint80": {
        "encoding": "inplace",
        "label": "uint80",
        "numberOfBytes": "10"
      }
    }
  }
}